S01200006275696C642F6D61696E2E737265632E
S31508000000005000201D0200081B0200081902000803
S315080000101902000819020008190200080000000069
S315080000200000000000000000000000001B0200089D
S315080000301B020008000000001B0200081B02000843
S315080000401902000819020008190200081902000816
S315080000501902000819020008190200081902000806
S3150800006019020008190200081902000819020008F6
S3150800007019020008190200081902000819020008E6
S3150800008019020008190200081902000819020008D6
S3150800009019020008190200081902000819020008C6
S315080000A019020008190200081902000819020008B6
S315080000B019020008190200081902000819020008A6
S315080000C01902000819020008190200081902000896
S315080000D01902000819020008190200081902000886
S315080000E01902000819020008190200081902000876
S315080000F01902000819020008190200081902000866
S315080001001902000819020008190200081902000855
S315080001101902000819020008190200081902000845
S315080001201902000819020008190200081902000835
S315080001301902000819020008190200081902000825
S315080001401902000819020008190200081902000815
S3150800015008B54FF4417000F052F84FF400530022EE
S315080001600221074800F00EF84FF40051044800F049
S315080001703AF8034C4FF40051204600F037F8F9E7F7
S31508000180001001402DE9F0434FF6E07700264FF0C6
S315080001900F0896469C46026843684CFA06F4E4073C
S315080001A018D5072EB4B28BBF3C4691469946A40093
S315080001B098BFA4B208FA04F529EA0509A51C0EFA9F
S315080001C005F501FA04F42C4344EA0904082E2CBF69
S315080001D02346224601360437102EBFB2DDD102600F
S315080001E04360BDE8F083090401617047C36803EA08
S315080001F0010221EA030141EA02410161704743090C
S3150800020000F01F02012003F1804303F50433196847
S315080002109040084318607047FEE77047002238B5DB
S315080002201849194C19485318834217D30021184AFC
S31508000230934217D3174A184C1368184D43F40073A2
S315080002401360AC4211D3164C164DAC4211D3FFF7CE
S315080002507FFF154C154DAC420FD338BD135953507B
S315080002600432E0E719600433E2E754F8043B9847A0
S31508000270E7E754F8043B9847E7E754F8043B984700
S31508000280E9E700BF00000020B002000800000020D7
S315080002900000002014ED00E0B0020008B0020008DB
S315080002A0B0020008B0020008B0020008B002000858
S7050800021DD3
